:100020000C0EC56E106A116A050E216E426E0F0E1F
:10003000206E416E21BE80EF00F02164A8EF00F039
:0400400000EF01F0DC
:10010000216C426C010E226E60008BF0CDFF80EFFF
:0201100001F0FC
:10015000216028EF01F0010E226E60008BF0CDFFD0
:0401600080EF01F03B
:0E020000020E226E60008BF0CDFF80EF01F049
:0E025000000E226E60008BF0CDFF80EF01F0FB
:100300000A0E4162416087EF01F08BEF01F0102A85
:10031000415E80EF01F010C061F041C060F04262C8
:10032000426095EF01F099EF01F0112A425E8FEFE4
:0A03300001F011C071F042C070F03E
:020000040030CA
:0A000000F8FFFFFF9FFFFFFFFFFF67
:00000001FF
