:040000000DEF00F010
:040008002BEF13F0D7
:06001800FF00D9EF12F019
:10200000004D6F76653A25752020202000537465B9
:1020100070733A257520202000000A50D96EDA6AC4
:102020006F007FFFF6FF200EF76E000EF86E0800BF
:10203000F550250AD8A41FEF10F021EF10F0B8EFEB
:1020400010F00A50D96EDA6ADF2A336A000E326E57
:1020500032C03CF0346835680A50D96EDA6ADF5015
:10206000116E600047F0F6FF200EF76E000EF86E5E
:102070000800F550750AD8A440EF10F042EF10F0B8
:10208000B2EF10F00B50D96EDA6A020EDF26DF5C79
:10209000D96EDA6A6F0078FF0DF06F0078FF0EF0EE
:1020A0000A50D96EDA6A1128DF6EA3EF10F0200E05
:1020B000126E12061250600FD96EDA6A0DC001F06E
:1020C0000EC002F0046A0A0E036E5FEC12F00150BB
:1020D000300FDF6E0DC001F00EC002F0046A0A0E70
:1020E000036E26EC12F001C00DF002C00EF00D5090
:1020F0000E10D8B47EEF10F080EF10F098EF10F0D3
:102100001250D8A486EF10F088EF10F059EF10F0BD
:1021100098EF10F01250600FD96EDA6ADF500C6E33
:102120000C50016E026A09C003F092EC11F0122A01
:10213000200E1218D8A49FEF10F0A1EF10F08AEF34
:1021400010F0CCEF10F0600047F0F6FF200EF76EB5
:10215000000EF86E0800F550750AD8B457EF10F06D
:10216000B2EF10F00A50D96EDA6ADF2ACCEF10F025
:102170000A50D96EDA6A6F007FFFF6FF200EF76E05
:10218000000EF86E0800F550016E026A09C003F0F7
:1021900092EC11F0B2EF10F0120027C005F028C049
:1021A00006F029C007F02AC008F091EC12F005C033
:1021B0002BF006C02CF04E50D8A4E1EF10F0E3EF66
:1021C00010F0EFEF10F03D2A040E3D64EAEF10F03E
:1021D000ECEF10F0EFEF10F0010E4E6E3D6A2C5058
:1021E00009E1E70E2B5CD8A0F8EF10F0FAEF10F041
:1021F00006EF11F04E04D8A400EF11F002EF11F039
:1022000006EF11F03A4A3B2A4E6A3D6A2C5007E12C
:10221000C80E2B5CD8B00FEF11F011EF11F014EFD6
:1022200011F0010E4E6E3D6A3E0E176E0D0E186EC9
:102230003AC019F03BC01AF044EC13F0000E036EE4
:102240003E0E046E010E12EC13F03E0E176E010EE0
:10225000186E2BC019F02CC01AF044EC13F0000ECD
:10226000036E3E0E046E020E12EC13F01200A30E6B
:10227000026E550EE82EFED7022EFCD70000BD9050
:10228000BD92BB6A110E026E3A0EE82EFED7022EE8
:10229000FCD700D0300E9DEC13F0040E026E3E0E03
:1022A000E82EFED7022EFCD7300E9DEC13F0040E64
:1022B000026E3E0EE82EFED7022EFCD7300E9DECAD
:1022C00013F0040E026E3E0EE82EFED7022EFCD74F
:1022D000380E9DEC13F0040E026E3E0EE82EFED773
:1022E000022EFCD7080E9DEC13F0FA0E00D0E82E5B
:1022F000FDD7010E9DEC13F0040E026E3E0EE82E8B
:10230000FED7022EFCD7060E9DEC13F0FA0E00D07D
:10231000E82EFDD70C0E9DEC13F0FA0E00D0E82E3F
:10232000FDD712000350D8B498EF11F09AEF11F0D6
:10233000A2EF11F00350D8A4A0EF11F0A2EF11F01A
:10234000A7EF11F00150D7EC13F0E7EF11F00350B5
:10235000D96EDA6A090ED926DE50DE10D8B4B3EF92
:1023600011F0B5EF11F0CEEF11F00350D96EDA6A2B
:10237000090ED9260350E16EE26A020EE126DE5014
:10238000E65CE650800A086EDE50800A0858D8B035
:10239000CCEF11F0CEEF11F0E7EF11F00350D96E52
:1023A000DA6A020ED926DF50046E0350D96EDA6A5B
:1023B000DF500424D96EDA6A600007F0DFFF0350B3
:1023C000D96EDA6A020ED926DE2A000EDD2212004C
:1023D0003A01506B706B606BC36AC56AC46ABB6AB2
:1023E000BD6ABC6AB0EC13F0C2EC13F0A30E2D6E04
:1023F000550EE82EFED72D2EFCD7000037EC11F03D
:10240000CFEC13F0010E5CEC13F001C02EF002C013
:102410002FF0020E5CEC13F001C030F002C031F07E
:102420002EC027F02FC028F030C029F031C02AF08C
:10243000CDEC10F0110E2D6E3A0EE82EFED72D2E9B
:10244000FCD700D002EF12F00DEF00F0066A000E8C
:10245000056E03500410D8B430EF12F032EF12F0D2
:102460005AEF12F0010E076E3AEF12F0D8900336D1
:102470000436072A04AE3FEF12F041EF12F036EFB8
:1024800012F0D890053606360350015C045002580D
:10249000D8A04DEF12F04FEF12F054EF12F00350AE
:1024A000015E0450025A0580D89004320332072E90
:1024B00041EF12F005C001F006C002F01200035017
:1024C0000410D8B466EF12F068EF12F08CEF12F03F
:1024D000010E056E70EF12F0D89003360436052A0F
:1024E00004AE75EF12F077EF12F06CEF12F00350BC
:1024F000015C04500258D8A080EF12F082EF12F075
:1025000086EF12F00350015E0450025AD890043254
:102510000332052E77EF12F001C001F002C002F085
:1025200012003850055C016E39500658026EF8EC06
:1025300012F001C009F002C00AF03650075C016ECB
:1025400037500858026EF8EC12F0015009240B6E57
:1025500002500A200C6E05C038F006C039F007C0E2
:1025600036F008C037F00BC005F00CC006F01200C2
:1025700014C016F0C4EF12F013C009F0160E0A6E64
:1025800015C00BF00DEC10F060005BF0F6FF200EB4
:10259000F76E000EF86E0800F5500009D8A4D3EFCE
:1025A00012F0D5EF12F0BCEF12F0146A000E136EA9
:1025B0001200B00EF66E270EF76E000EF86E0900D0
:1025C0006F00D4FF4EF000EE60F0200EEE6AE806D9
:1025D000FDE100EE32F01C0EEE6AE806FDE1080EA9
:1025E000D56E000ED66E000ED76E0001E8EF11F02A
:1025F00002BEFDEF12F0FFEF12F005EF13F001C085
:1026000001F002C002F011EF13F001C003F002C0AC
:1026100004F0031E041E034A042A03C001F004C090
:1026200002F01200056E0504D8A419EF13F01BEF99
:1026300013F020EF13F00350800F066E23EF13F01A
:102640000350C00F066E06509DEC13F004C002F05C
:1026500074EC13F012003901A0AF31EF13F033EF37
:1026600013F043EF13F03A0167A739EF13F03BEF94
:1026700013F041EF13F03B6A000E3A6E010E4E6EFE
:1026800067973901A09F1100190E1B6E17C01CF02F
:102690001F6A000E1E6E266A000E256E1C0E136E3B
:1026A00018C014F01B0E156EB8EC12F017501E2453
:1026B000D96EDA6ADF6A1200056E600017F0F1FE6B
:1026C000A60EE82EFED700D03E01F881F8B16BEFE0
:1026D00013F06DEF13F066EF13F0F051036EEF514E
:1026E000016E03C002F012007DEF13F00250D96EAC
:1026F000DA6ADF5089EC13F0022A0250D96EDA6AE6
:10270000DF50D8A486EF13F088EF13F076EF13F0C4
:102710001200016E600007F0BBFFBD80530EE82E73
:10272000FED70000BD82530EE82EFED70000BD92FA
:10273000A60EE82EFED700D01200016E600007F052
:10274000BBFFBD90530EE82EFED70000BD82530E96
:10275000E82EFED70000BD92FA0EE82EFED712003A
:10276000C282C2843A01408340853E01F851F30B96
:102770000409F86FF889FF6BF66BF76BF36BF46B7A
:10278000F88F1200C4863A01609761876597668763
:1027900067973901A09F908FD29AD28E1200010EB6
:1027A0009DEC13F0FA0E00D0E82EFDD712001200B7
:0127B0000127
:020000040030CA
:0A000000ECDFF7FF9FFFFFFFFFFF9B
:00000001FF
