:100030003F01CB6A3F01BB6A3A01506B3F01030E9F
:10004000C36E3F01CD6A3F01BD6A3A01706B3F014B
:10005000000EC56E00EE0AF03F0E0A6E060E0B6E25
:100060005B0E0C6E4F0E0D6E660E0E6E6D0E0F6EED
:100070007D0E106E070E116E7F0E126E6F0E136ED8
:10008000770E146E7C0E156E390E166E5E0E176EA0
:10009000790E186E710E196EEF50BD6ECBA056EF33
:1000A00000F0CBA256EF00F080EF00F0CBB05EEF97
:1000B00000F0CBB264EF00F04EEF00F0EF501962A9
:1000C0006AEF00F080EF00F0EF500A6271EF00F08D
:1000D00078EF00F0E92AEF50BD6E88EC00F04EEFAB
:1000E00000F0E906EF50BD6E88EC00F04EEF00F036
:1000F00000EE19F0EF50BD6E88EC00F04EEF00F00E
:1001000000EE0AF0EF50BD6E88EC00F04EEF00F00C
:10011000010E316E010E326E010E336E3106FEE1BC
:10012000010E316E3206FAE1010E326E3306F6E14F
:020130001200BB
:020000040030CA
:0A000000F8FFFFFF9FFFFFFFFFFF67
:00000001FF
