:04000000FEEFFFF020
:1020000000762600000000000000C8280000000044
:102010009427000000000000000000000000000005
:1020200000000000000000000000000000000000B0
:102030000000000000000000000000000000280078
:10204000DE2700BC27000000000D0A0D0A002564F1
:032050002000006D
:102054001F50D96EDA6A6F007FFFF6FF200EF76E0D
:10206400000EF86E0800F550250AD8A43CEF10F0D5
:102074003EEF10F0FEEF10F01F50D96EDA6ADF2A3F
:102084004D6A000E4C6E4CC052F04E684F681F50A3
:10209400D96EDA6ADF50236E60008FF0F6FF200EEF
:1020A400F76E000EF86E0800F550640AD8B45DEFC0
:1020B40010F05FEF10F070EF10F060008FF0F6FF9B
:1020C400200EF76E000EF86E0800F550690AD8A4C9
:1020D4006EEF10F070EF10F0F8EF10F02050D96EA2
:1020E400DA6A020EDF26DF5CD96EDA6A6F0078FFE7
:1020F40024F06F0078FF25F01F50D96EDA6A232888
:10210400DF6E200E286E25BE8AEF10F08DEF10F0E2
:10211400010E8EEF10F0000E226E28062850600F7C
:10212400D96EDA6A24C013F025C014F0166A0A0EB8
:10213400156E38EC12F013C019F014C01AF0B0EC9C
:1021440013F01950300FDF6E24C001F025C002F0E7
:10215400046A0A0E036E81EC11F001C024F002C07F
:1021640025F024502510D8B4BAEF10F0BCEF10F0CD
:10217400C4EF10F02850D8A4C2EF10F0C4EF10F050
:102184008FEF10F02850D8B4CAEF10F0CCEF10F055
:10219400EDEF10F02250D8B4D2EF10F0D4EF10F0DD
:1021A400EDEF10F028062850600FD96EDA6A2D0E74
:1021B400DF6EEDEF10F02850600FD96EDA6ADF5051
:1021C400216E2150036E046A1DC005F01EC006F086
:1021D40015EC11F0282A200E2818D8A4F4EF10F0DA
:1021E400F6EF10F0DDEF10F014EF11F01F50D96E80
:1021F400DA6ADF2A14EF11F01F50D96EDA6A6F0021
:102204007FFFF6FF200EF76E000EF86E0800F55003
:10221400036E046A1DC005F01EC006F015EC11F033
:10222400F8EF10F0120005500610D8B41CEF11F0AE
:102234001EEF11F027EF11F005500610D8A425EF7A
:1022440011F027EF11F02CEF11F0035011EC14F002
:1022540080EF11F020EE09F00550D9260650DA225D
:10226400DE50DE10D8B439EF11F03BEF11F056EF29
:1022740011F020EE09F00550D9260650DA2210EEAE
:1022840002F00550E1260650E222DE50E65CE650FC
:10229400800A0B6EDE50800A0B58D8B054EF11F050
:1022A40056EF11F080EF11F020EE02F00550D92620
:1022B4000650DA226F0078FF07F06F0074FF08F011
:1022C400600017F0D9FF60001BF0DAFF6F0078FFA1
:1022D40009F06F0074FF0AF007500924D96E085002
:1022E4000A20DA6E60000FF0DFFF20EE02F00550E6
:1022F400D9260650DA22DE2A000EDD221200066AF2
:1023040004BE89EF11F087EF11F08FEF11F0036C29
:10231400041ED8B0042A010E066E02BE96EF11F018
:1023240094EF11F09CEF11F0016C021ED8B0022A58
:10233400010E061A086A000E076E03500410D8B482
:10234400A6EF11F0A8EF11F0D0EF11F0010E056E19
:10235400B0EF11F0D89003360436052A04AEB5EF79
:1023640011F0B7EF11F0ACEF11F0D8900736083642
:102374000350015C04500258D8A0C3EF11F0C5EF1C
:1023840011F0CAEF11F00350015E0450025A0780A5
:10239400D89004320332052EB7EF11F00650D8B4AA
:1023A400D6EF11F0D8EF11F0DCEF11F0076C081E36
:1023B400D8B0082A07C001F008C002F012003DECB2
:1023C40014F03BEC13F0376A000E366ED0EC12F0CA
:1023D4000DC013F00EC014F0166A640E156E38ECBE
:1023E40012F0010E1324346E000E1420356E4E0EBE
:1023F4002E6E34C02FF035C030F030EC14F0364A75
:10240400372A37BE0FEF12F0375009E11E0E365C43
:10241400D8A00FEF12F011EF12F0E8EF11F0490E0F
:102424002E6E30EC14F0396A000E386E520E336E94
:102434002B0E326E000EE82EFED7322EFCD7332E32
:10244400FAD700D0384A392A39BE32EF12F039505F
:1024540009E10A0E385CD8A032EF12F034EF12F022
:1024640018EF12F0E5EF11F0FEEFFFF0186A14BE5A
:1024740040EF12F03EEF12F046EF12F0136C141E10
:10248400D8B0142A010E186E16BE4DEF12F04BEFA1
:1024940012F051EF12F0156C161ED8B0162A155012
:1024A4001610D8B458EF12F05AEF12F07EEF12F073
:1024B400010E176E62EF12F0D89015361636172AF1
:1024C40016AE67EF12F069EF12F05EEF12F01550DE
:1024D400135C16501458D8A072EF12F074EF12F077
:1024E40078EF12F01550135E1650145AD890163225
:1024F4001532172E69EF12F01850D8B484EF12F089
:1025040086EF12F08AEF12F0136C141ED8B0142A5E
:1025140013C013F014C014F01200BA6ABB6ABC6A88
:10252400BD6ABE6A3A01426B526B626B726B826B1C
:10253400C268C368C468FE0EC56E070EC66E4069E5
:1025440050696069FC0E706F070E806F416B516BB0
:10255400616B716B816B4369536963697369070EBE
:10256400836F44695469646974690F0E846F5A6B8C
:102574005B6B6A6B6B6B7A6B7B6B190EE86F160E79
:10258400186F456B466B476B556B566B576B656B9A
:10259400666B676B856B866B876B120053C001F0AB
:1025A40054C002F055C003F056C004F02D0E056E61
:1025B4007F0E066E950E076E4C0E086E06EC13F039
:1025C400010E0124536E000E0220546E000E0320EF
:1025D400556E000E0420566E53C00FF054C010F018
:1025E40055C011F056C012F0120EFEEF12F0D89042
:1025F4001232113210320F32E82EF9EF12F00FC0FE
:102604000DF010C00EF01200000E096E000E0A6EDE
:10261400000E0B6E000E0C6E01A013EF13F015EFFD
:1026240013F01DEF13F00550092606500A22075037
:102634000B2208500C22D890053606360736083689
:10264400D8900432033202320132015002100310D6
:102654000410D8A430EF13F032EF13F00EEF13F0A0
:1026640009C001F00AC002F00BC003F00CC004F072
:1026740012003D01D46BD66BD86BB00EDA6F800EAE
:10268400DB6FDC6B820EDD6F060EDE6F2E0EDF6FEE
:10269400E06B800EE16FE26B000E016E000E026EC5
:1026A400000E036E00EC14F0000E016E000E026EBC
:1026B400000E036EEFEC13F0000E016E000E026EBE
:1026C400000E036EDEEC13F0516A000E506E120021
:1026D4002BC02DF078EF13F029C01DF02AC01EF096
:1026E4002D0E1F6E2CC020F02AEC10F06000B7F005
:1026F400F6FF200EF76E000EF86E0800F550000984
:10270400D8A487EF13F089EF13F06EEF13F02A6A61
:10271400000E296E1200D29A3901A191D280000EC6
:10272400016E000E026E000E036E5DEC14F03901B2
:10273400A591D282000E016E000E026E000E036E91
:1027440056EC14F03901A79BD284000E016E000EE2
:10275400026E000E036E4FEC14F012001ABEB5EFB9
:1027640013F0B7EF13F0BDEF13F019C019F01AC04E
:102774001AF0C9EF13F019C01BF01AC01CF01B1E8D
:102784001C1E1B4A1C2A1BC019F01CC01AF0120084
:10279400016A3D01DFABD1EF13F0D3EF13F0DCEFAF
:1027A40013F0DAABD8EF13F0DAEF13F0DCEF13F039
:1027B400010E016E01501200015002100310D8B432
:1027C400E6EF13F0E8EF13F0EEEF13F001C03AF088
:1027D40002C03BF003C03CF0120001500210031091
:1027E400D8B4F7EF13F0F9EF13F0FFEF13F001C0D3
:1027F4003DF002C03EF003C03FF012000150021051
:102804000310D8B408EF14F00AEF14F010EF14F02A
:1028140001C040F002C041F003C042F01200026E59
:10282400CAEC13F00009D8B41AEF14F01CEF14F03A
:1028340012EF14F002C001F064EC14F0120000EE88
:1028440060F0200EEE6AE806FDE100EE3AF01D0E9F
:10285400EE6AE806FDE10001E1EF11F02F0E316EA2
:10286400000E296E000E2A6E2EC02BF0310E2C6E37
:102874006AEC13F0120046EC14F08FEC12F03BEC0F
:1028840013F08DEC13F01200600E3901D96FDB6B7D
:10289400DD6B080EDF6FDE6B120001C043F002C077
:1028A40044F003C045F0120001C046F002C047F0F6
:1028B40003C048F0120001C049F002C04AF003C04E
:0C28C4004BF01200600007F0D2FD120083
:020000040001F9
:04FFFC0021EF14F0ED
:020000040030CA
:0A0000008FFFF7FF9FFFFFFFFFFFD8
:00000001FF
